:020000040800F2
:10000000A831002055020008C34B000835470008FE
:10001000BF4B0008712A0008CD5100080000000005
:10002000000000000000000000000000C74B0008B6
:10003000132C000800000000C54B0008C94B000845
:100040006F0200086F0200086F0200086F020008CC
:100050006F0200086F0200086F0200086F020008BC
:100060006F0200086F0200086F0200086F020008AC
:100070006F0200086F0200086F0200086F0200089C
:10008000E92A0008F92A00086F0200086F02000838
:100090006F0200086F0200086F0200086F0200087C
:1000A0006F0200086F0200086F0200086F0200086C
:1000B0006F0200086F0200086F0200086F0200085C
:1000C0006F0200086F0200086F0200086F0200084C
:1000D0006F020008BD5100086F0200086F0200089F
:1000E0006F0200086F0200086F0200086F0200082C
:1000F0006F0200086F0200086F0200086F0200081C
:100100006F0200086F0200086F0200086F0200080B
:100110006F0200086F0200086F0200086F020008FB
:100120006F0200086F0200086F0200086F020008EB
:100130006F0200086F0200086F0200086F020008DB
:100140006F0200086F0200086F0200086F020008CB
:100150006F0200086F0200086F0200086F020008BB
:100160006F0200086F0200086F0200086F020008AB
:100170006F0200086F0200086F0200080000000014
:100180006F0200086F02000800F002F800F052F859
:100190000AA090E8000C82448344AAF10107DA45E2
:1001A00001D100F047F8AFF2090EBAE80F0013F0E2
:1001B000010F18BFFB1A43F00103184744710000F8
:1001C00064710000103A24BF78C878C1FAD8520789
:1001D00024BF30C830C144BF04680C6070470000C1
:1001E0000023002400250026103A28BF78C1FBD840
:1001F000520728BF30C148BF0B607047662906F020
:10020000A386752900F0DE80002070471FB506F038
:100210008EFE01F03BF904000020002106F00EFCE8
:10022000401C60600020002106F0F2FBE0601FBD72
:1002300010B510BD01F0F4FB1146FFF7E7FF06F023
:10024000BBF801F045FE03B4FFF7F2FF03BC05F075
:100250006EFE00000948804709480047FEE7FEE7B8
:10026000FEE7FEE7FEE7FEE7FEE7FEE7FEE7FEE766
:1002700004480549054A064B70470000D14B000869
:1002800089010008A82B0020A8310020A82D0020FB
:10029000A82D0020704753EA020C00F069802DE978
:1002A000F04B4FF00006002B1FBFB3FA83F503FAA3
:1002B00005F424FA05F65E4012BF1643B2FA82F541
:1002C00002FA05F4C5F120051EBF22FA05FC44EA36
:1002D0000C04203556EA044C4FEA144418BF641C41
:1002E0004FF000084FF00009904271EB030C39D336
:1002F000002919BFB1FA81F701FA07F6B0FA80F7C1
:1003000000FA07F6C7F120071EBF20FA07FC46EAED
:100310000C062037B6FBF4FCA7EB0507103F07F0EF
:100320001F0BCBF120060CFA0BFB2CFA06F644BF90
:10033000B3460026202FA4BF5E464FF0000B5BEAB9
:10034000060C08BF4FF0010B19EB0B09ABFB027C4D
:1003500048EB0608C01B06FB02CC0BFB03CC71EB81
:100360000C01C1E70B46024641464846BDE8F08B0A
:1003700013B54FF000004FF00001AFF30080BDE86F
:100380001C4070470FB4044910B503AA029800F04E
:10039000ABFD10BC5DF814FB0C0000200FB41CB5C5
:1003A000074B06AA7B4469460090059800F083FD40
:1003B0000020694600F092FD1CBC5DF814FB0000B3
:1003C000350B00002DE9F041064600241068752920
:1003D000314616A510D0AFF30080002802DA404263
:1003E00013A507E031688A0701D512A502E0490785
:1003F00004D511A5012401E0AFF3008000210A22F9
:1004000006F1240709E0B0FBF2FCB0FBF2F302FBBB
:100410001C00303078541846491C0028F3D123467C
:100420002A463046BDE8F04100F0D7BA000000008F
:100430002D0000002B000000200000002DE9F047F7
:100440004FF0000A89460446C0F820A02046E16823
:100450008847002876D0252806D0D4E90121904786
:10046000206A401C2062F1E7E168204600258847A9
:10047000C4F81CA006460027C4F818A02A2E09D0EC
:10048000304605F04DFD38B304EB8708303EC8F820
:10049000186019E059F8041B204604EB87029161AB
:1004A000E1688847012F064618D1E069002820DA64
:1004B00025F020051DE0D8F8180000EB800006EBC1
:1004C00040003038C8F818002046E16888470646E2
:1004D00005F026FD0028EED1012F0AD02E2E08D1DE
:1004E0002046E16888477F1C0646022F45F020051C
:1004F000C4DBA069002803DA404245F00105A06191
:10050000E80701D025F01005B6B1A6F14100192881
:1005100002D8203645F400654A463146204625601B
:100520004D46FFF76BFE58B1012806D0ED1D25F0B2
:10053000070000F1080989E704E005F1040985E7EF
:1005400030468AE7206ABDE8F08700000FB400B5A6
:100550008DB010A9099000910B904FF0FF300A90D8
:1005600000200C90064878440690064878446A4675
:1005700007900F9909A800F059FF0DB05DF814FB22
:10058000E30E0000FB0E00002DE9FF5F1D464FF05B
:10059000FF3B91464FF000085F46D5E90146A96947
:1005A00001987F1C8847296A824688470028F6D12F
:1005B000BAF1FF3F0CD0002E24F4C06419DD6006B0
:1005C00014D5BAF12B0F09D0BAF12D0F0ED103E0DB
:1005D000584604B0BDE8F09F44F48064A9690198CE
:1005E0007F1C8847761E8246002E02DDBAF1300F4E
:1005F00003D0B9F1000F26D032E0A969761E019828
:100600007F1C44F400748847002E824605DDBAF151
:10061000780F06D0BAF1580F03D0B9F1000F10D0FF
:100620001EE0B9F1000F02D0B9F1100F18D1A9697D
:10063000761E01987F1C24F400748847824610209F
:1006400002E0082000E00A20814609E0A96908FBD1
:100650000908761E01987F1C44F40074884782467E
:10066000002E05DD4946504600F050FC0028EDDA2A
:10067000E96901988847A00502D46FF00100A8E756
:10068000E00725D1600613D5600502D5C8F100004A
:1006900000E0404629680A1D2A600968220501D544
:1006A000087015E0220701D5088011E008600FE00E
:1006B0002868011D29600068210502D580F80080A6
:1006C00006E0210702D5A0F8008001E0C0F8008014
:1006D00038467EE72DE9FF5F4FF000089946144643
:1006E00046469169D2E901A7DDF838B001988847FC
:1006F000054659EA0B0005D009E0A1690198761C6E
:1007000088470546216A284688470028F5D1681C95
:1007100003D05FEACA7005D015E04FF0FF3004B097
:10072000BDE8F09F2068011D2160D0F800800AE03C
:100730005FEACA7001D108F8015BA169761C0198D3
:100740007F1E88470546002F1ADD681C18D0B9F1B6
:10075000000F0DD0E81705EBD060421120F01F000C
:1007600059F822102A1A012090400142E0D107E0F6
:10077000BBF1000FDCD12846216A88470028D7D07A
:10078000E16901988847BBF1000F07D1002E05DD14
:100790005FEACA7002D1002188F80010A068B84250
:1007A00003DDBBF1000F03D017B16FF00100B6E716
:1007B0003046B4E710B5431C02E010F8011B71B1DC
:1007C0008107FAD14FF0013202C88C1A8C4314EA27
:1007D000C211F9D0C01A0A0603D0C01E10BDC01A3B
:1007E00010BD0A0401D0801E10BD0902FCD0401EBD
:1007F00010BD40EA010370B59B072ED14FF00136C2
:10080000042A2AD308C810C99D1B9D43121F15EA4C
:10081000C61517D0D8B2E1B2401A50EA056110D11E
:1008200098B2A1B2401A50EA05410AD123F07F40A4
:1008300024F07F41401A50EA052102D1180EA0EBA6
:10084000146070BDA342DBD018BA21BA884201D926
:10085000012070BD4FF0FF3070BD0AB9002070BD9F
:1008600010F8013B11F8014B63B1A3420AD1521EAB
:1008700008D010F8013B11F8014B1BB1A34201D184
:10088000521EEDD1181B70BD10B5203AC0F00B8080
:10089000B1E81850203AA0E81850B1E81850A0E884
:1008A0001850BFF4F5AF5FEA027C24BFB1E81850DE
:1008B000A0E8185044BF18C918C0BDE810405FEA4E
:1008C000827C24BF51F8043B40F8043B08BF7047CA
:1008D000D20728BF31F8023B48BF11F8012B28BFCF
:1008E00020F8023B48BF00F8012B70474FF0000290
:1008F00000B5134694469646203922BFA0E80C5016
:10090000A0E80C50B1F12001BFF4F7AF090728BFF0
:10091000A0E80C5048BF0CC05DF804EB890028BF6C
:1009200040F8042B08BF704748BF20F8022B11F095
:10093000804F18BF00F8012B704700004FF0013CBA
:1009400050F8042B51F8043B9A4221D1A2EB0C033E
:10095000934313EACC1317D150F8042B51F8043BFE
:100960009A4215D1A2EB0C03934313EACC130BD19B
:1009700050F8042B51F8043B9A4209D1A2EB0C0326
:10098000934313EACC13DBD04FF00000704700BF55
:10099000D01A01BAB1FA81F101F0180122FA01F07E
:1009A000CB40C1F12001DBB2C0B2C01A2CFA01F376
:1009B000D11A914311EAC311E6D1704770477047CD
:1009C0007047704710B500F065FD006810BD10B5A8
:1009D000044600F05FFD046010BD2DE9F0470D46B0
:1009E00099469246044600F124080168880604D519
:1009F000E06921F01001216000E00120A84201DD42
:100A0000471B00E00027A1697A1902EB0900081AC8
:100A1000A0612078C00602D42046AFF300800026F3
:100A200008E0D4E901211AF806009047206A401C2A
:100A3000761C20624E45F4DB2078C0060AD520469D
:100A4000AFF3008006E0D4E9012130209047206A0E
:100A5000401C2062381EA7F10107F4DC07E0D4E94E
:100A6000012118F805009047206A401C2062281ECA
:100A7000A5F10105F3DC2046AFF3008020780006E5
:100A800002D50220BDE8F0870120FBE770472DE981
:100A9000FF4F0C461E464FF0FF378BB0D2E90001E6
:100AA000DDF860800A908A46C1F30A5505B93D46D3
:100AB000002108464FF00000BAF1000F00F440009A
:100AC00005DA00EB80004FF4400101EA50004FEAE4
:100AD0009059B9F1010F00DDB9460A9850EA4A0071
:100AE0000ED044F61050A5F2FF3545432F14B8F14F
:100AF000000F1ED07542291E1EDDC9F100021CE048
:100B0000B8F1010F4FF0000001D0302103E0F243B3
:100B100005E02154401CB042FBDB3046002200219E
:100B200021540B99C1F80880C1E900200FB0BDE83D
:100B3000F08FBD1B6D1CDEE74A4600DA694206A84D
:100B400000F0F4FE06AB93E8070003AB83E8070070
:100B500050460A9901F0D8F98DE80700A0F5005039
:100B60001F3800900398002D0ADD42F21F014A460B
:100B70000844002303A90390684601F083FC09E0C0
:100B8000A0F500504A461F38002303A90390684689
:100B900001F0A2FC8DE807000004000C03D04FF028
:100BA000FF30410800E01046B8F1000F03D00022EA
:100BB000009215461EE0751E05D400F06FFC303221
:100BC00062556D1EF9D5B3460122084302D00022BA
:100BD0007F1C04E02078302801D100227F1E002AEB
:100BE000099784D01DE0112D07DA00F057FC303250
:100BF00062556D1C50EA0102F5D1084302D00098FD
:100C0000C8B10EE00021681E05E0235C625C6354FD
:100C10002254401E491C8142F7DBAB46A81B401EF4
:100C20000990002004F80B000B98099AC0F808807E
:100C3000C0E9002B7AE711264FF0000857E72DE9AD
:100C4000F04F88460446D21D22F0070191B0D1E949
:100C50000001CDE90A0104F0BBFA02460B98C00F6F
:100C600001D02D2007E02068810701D52B2002E06C
:100C7000202101EAC000032A099001D0072A05DBE0
:100C800003464146204600F057FC0BE120788006E1
:100C900001D5E06900E00620B8F1650F814606D075
:100CA000B8F1660F18D0B8F1670F70D131E00020AD
:100CB000B9F1110F009001DB112301E009F10103EB
:100CC0000AAA01A90CA8FFF7E2FEDDE90C700026D4
:100CD00009F10105834647E001204B4600904FF0A3
:100CE00000470AAA01A90CA8FFF7D1FEDDE90DB063
:100CF0000C995D46002610B909F101000D18B9EBF9
:100D0000050003D4C0F1FF3609F10105A5EB090088
:100D10002BE0B9F1010F01DA4FF001090020B9F120
:100D2000110F0090484601DD112300E003460AAA96
:100D300001A90CA8FFF7ABFEDDE90C704D460026BB
:100D40008346207800070AD4AB4500DA5D4601A847
:100D5000012D04DD411911F8011C302907D04F4540
:100D600002DA17F1040F04DA012082460FE06D1E4B
:100D7000EEE7002F02DCED1B3E4403E0781CA842A6
:100D800000DD7D1CB81B00F1010A4FF00047207800
:100D9000000703D4AA4501DB4FF0FF3A0021B7F169
:100DA000004F0DF143088DF8431024D002202B236F
:100DB000002F01DA7F422D230A21021EA0F101003B
:100DC00000DC5FB197FBF1FC97FBF1F201FB1C7CAF
:100DD00017460CF1300C08F801CDEEE7A8F1010040
:100DE00003702188090501D5452100E06521A0F1A6
:100DF000010800F8011C09980FA9A1EB0807FF1DC5
:100E000000B10120411901EBEA70A1693844081AC8
:100E1000401EA0612078C00602D42046AFF30080B7
:100E2000099828B1D4E901219047206A401C20622A
:100E30002078C00622D52046AFF300801EE0002EA9
:100E400004DBB34502DD01A8805D00E03020D4E979
:100E500001219047206A401C2062761CAAF1010003
:100E60005FEA000A0AD100F011FBC0680168405C2B
:100E7000D4E901219047206A401C2062281EA5F178
:100E80000105DCDC07E0D4E9012118F8010B9047EB
:100E9000206A401C2062381EA7F10107F3DC2046BF
:100EA000AFF30080032011B041E6000001694A1C45
:100EB00002610878704700B58FB0CDE9013100219B
:100EC000059105497944CDE9031011466846FFF7BD
:100ED000B5FA0FB000BD0000E5FFFFFF0A6802F899
:100EE000010B0A6070470000074B70B50D467B444C
:100EF000FFF7E1FF0446284600F08AFD10B14FF0ED
:100F0000FF3070BD204670BD7F5000003A2800D2EF
:100F1000303820F02002412A01D3A2F13700884264
:100F200001D34FF0FF3070472DE9FF4F06468BB0DD
:100F30000878FF2806D0491C2D2805D000244FF042
:100F4000000908E000200CE00124F8E709EB890320
:100F5000491C00EB43090878FF28F7D114B1C9F107
:100F600000008146107800252C46AA4629462D28E7
:100F700001D02B2804D1521C2D2813D000208246EA
:100F80008B461078FF280FD04FF0000C0A21521C1E
:100F9000A5FB017804FB018105FB0C11C5194BEB86
:100FA0000104EEE70120EAE7002108464FF00000C7
:100FB000BAF1000F02D000EB80004008C0F3815767
:100FC000012F01DD4FF0FF370E9955EA040009EBC0
:100FD00001080BD04FF0020918F5FA7F16DA4FEA34
:100FE000CA70002F706008DD012007E04FEACA7068
:100FF000C6E900B00FB0BDE8F08F0020306000F00F
:1010000049FAC0F800901821084616E0B8F5FA7FB2
:1010100018DD002F02DAF748784401E0F6487844FA
:10102000D0E90010C6E9001040EACA70706000F014
:1010300031FAC0F80090142108460FB0BDE8F04F17
:1010400005F07FBF002108464FF00000B8F1000115
:10105000099002DAC7F1000200E03A4601DAC8F16D
:10106000000106A800F062FC06AB93E8070003ABA2
:1010700083E8070044F23E005BEA04010090584612
:1010800004D144F21E012C465D460091210C090456
:10109000014306D10099240444EA15442D04103973
:1010A000009104F07F41014306D10099240244EAF3
:1010B00015642D020839009104F07041014306D1F6
:1010C0000099240144EA15742D01091F009104F0D0
:1010D0004041014306D10099A40044EA9574AD0053
:1010E000891E009104F00041084304D100986D1955
:1010F0006441401E00904FF001033A466846B8F143
:10110000000FCDE9014503A902DD01F0FAF901E084
:1011100001F0CDF9BAF1000F04460D4601D084F07C
:101120000044002108464FF00000099940F2FF7783
:10113000484010F00C0F07D124F00040284303D0A2
:10114000C4F30A50B84212D100F0A4F9C0F80090DC
:10115000C4F30A50B8420AD1A8487844D0E9001034
:10116000C6E9001004F000410843706042E7C6E998
:1011700000543FE72DE9FF4F1F464FF0000A4FF0A4
:10118000FF38454691B0D7E90146CDF83CA000F0C4
:101190007DF9C0680168405C1090B96912986D1CB7
:1011A0008847396A814688470028F6D1B9F1FF3F60
:1011B0000AD0002E24F4D06411DDB9F12B0F08D031
:1011C000B9F12D0F0BD102E0404615B013E744F4FE
:1011D0008064B96912986D1C8847761E8146600547
:1011E00004A901D52D2000E02B20002E01F1010BD8
:1011F0000DF130088DF810003FDDB9F1690F08D00E
:10120000B9F1490F05D0B9F16E0F02D0B9F14E0F07
:101210001CD13B4601A8009580E85002DDE912127E
:101220006FF0020005F0F6FEC11CCED10EE0B969E8
:1012300012986D1C884781461398761E44F40074FA
:1012400005600F98401C002E0F9016DDB9F1300F8D
:10125000EDD0B9F1780F02D0B9F1580F0DD10F9838
:1012600001280AD13B46CDE90054DDE91212001FE6
:10127000029605F0CDFEC11CA7D1109989453ED13B
:1012800044F0800406E01399681CAAF1010A44F4B2
:1012900000740860B9696D1C1298761E8847302862
:1012A0008146F0D02BE01099894505D1200603D462
:1012B000761E44F0800418E0484604F031FE08B37E
:1012C000761E0DF123018B4544F4007408D2A9F178
:1012D00030000BF8010B200607D5AAF1010003E04E
:1012E000200602D40AF101008246A00502D5139916
:1012F000681C0860B96912986D1C88478146002EE9
:10130000D1DC53E0002E51DDB9F1650F02D0B9F107
:10131000450F4BD1A00549D5B9696D1C1298761EB1
:1013200024F440748847002E81460CDD2B2804D01D
:10133000B9F12D0F07D144F48074B96912986D1C6E
:101340008847761E8146E00501D52D2100E02B213E
:1013500008F8011BCDF8008021E0761E0DF139015F
:10136000884544F400740CD2A9F1300010F0FF005D
:1013700088F8000002D10099884509D908F10108D0
:1013800006E0E00501D51E4801E042F20F708246FA
:10139000B96912986D1C8847814613980560002E24
:1013A00004DD484604F0BCFD0028D6D1F969129846
:1013B0008847FF2053468BF8000088F80000002083
:1013C0000A900B9004AA0CA90AA8FFF7ADFDA0058E
:1013D00002D46FF00100F8E614F0240F12D0E007F9
:1013E0001CD13868DDE90A12031D3B600068C0E9C2
:1013F000001213E00C630000FE620000C2610000F6
:10140000F1D8FFFF0AA9684604F0CCFCE00705D13B
:101410003868009A011D3960006802602846D4E6E9
:10142000026811441378016018467047D16005497D
:1014300079445161044979441162002111611146D6
:1014400000F0BAB8EDFFFFFFED000000426842B1C6
:10145000016811F8013B23B1521EC0E90012184681
:1014600070470121C160881E704742685AB1C36845
:10147000016843B983688B4205D0491E521CC0E9FC
:101480000012002070474FF0FF307047004870474F
:10149000682B002000487047482B002030B5B0F181
:1014A0000A024FEA900E71F100034EEA817EB0EB22
:1014B0000E0061EB91014FEA101E4EEA017E10EB27
:1014C0000E0041EB11114FEA102E4EEA016E10EBA7
:1014D0000E0041EB11214FEA104E4EEA014E10EB87
:1014E0000E0041EB1141401841F100014FEAD000DC
:1014F00040EA41704FEAD10110EB80054FEA8104C8
:1015000044EA907444EB01046D1944EB0404521B4B
:10151000A3414FF0000348BF0A3200D530BD401C44
:1015200041F1000130BD10B5044600F09FFA00689B
:10153000005D00F0010010BD2DE9F0411F4604469A
:1015400003260168072A01F4006004DB08B116A530
:1015500005E016A503E008B115A500E015A521F0EA
:1015600010002060A069C01EA0610FB1401EA061E4
:101570002046AFF300804FB1D4E9012138469047AF
:10158000206A401C2062C01C206206E0206AFAE744
:10159000D4E9012115F8010B9047761EF8D22046B8
:1015A000AFF30080BDE8F0814E414E006E616E00E9
:1015B000494E4600696E66002DE9F34F4FF0000A70
:1015C0000C4656468DB001200C9001F10C000B909A
:1015D00062690B9801219047051E2DD0252D2CD036
:1015E000216A8847C0B162690B9801219047216A3E
:1015F00088470028F7D16269411E0B98904700E0A8
:10160000761CA1690D988847216A88470028F7D180
:10161000E1690D988847DBE7A1690D988847A842E2
:10162000074601D1761CD3E7E1690D9888477F1CF6
:1016300002D1BAF1000F6FD06BE162690B980027FD
:101640003D46394690472A2804D162690B9801210A
:1016500090470125DFF8D08262690B9801219047FD
:10166000A0F130010A290AD24745E5DC07EB8701E2
:1016700000EB4107303FDFD445F01005ECE7E90609
:1016800001D46FF000476C280AD04C2814D0682889
:1016900015D06A280DD074281CD07A281AD01DE0E5
:1016A00062690B98012190476C2802D045F004052F
:1016B00014E045F002050DE045F020050AE06269FE
:1016C0000B9801219047682802D045F0080505E0F5
:1016D00045F4006562690B9801219047C4E9015700
:1016E00065283DD019DC58287AD00CDC452837D045
:1016F00004DC252826D041289ED131E046282FD071
:10170000472899D12CE05B2877D0612828D063281E
:101710007CD0642823D15AE0F6E06F2848D008DC5A
:1017200066281DD067281BD0692821D06E2816D1C5
:1017300027E0702845D0732868D0752847D07828CE
:101740000DD14DE0A1690D988847252805463FF445
:1017500069AFE1690D9888476D1C3FF46AAFD8E026
:101760000D9923466A466FF0010005F04FFCC5E075
:1017700045F0400023464FF000026060A80736D4D1
:101780003EE0E8077FF447AF2068011D2160006854
:10179000290501D506701BE7290701D5068017E743
:1017A000A90703D5F117C0E9006111E706600FE74B
:1017B00045F0400023464FF008026060A80716D4A9
:1017C0001EE040F60E0125EA0100606016E045F0DB
:1017D000400023464FF00A026060A80707D40FE0DC
:1017E00045F040006060A80708D5234610220D99F7
:1017F0006FF00100AFF3008080E007E01022234685
:101800000D996FF00100FEF7BFFE77E04FF0000981
:1018100063284F46C8464B46CB4602D05B2806D0CD
:1018200038E0E80601D40120A060012732E06269B7
:10183000D4F80CB00B98012190475E2807D14FF0E7
:10184000010949466269D4F80CB00B9890472169A8
:1018500039B900210A4603AB43F82120491C082965
:10186000FADBD8B3216949B308F1010862690B9822
:10187000012190475D28F4D1B9F1000F09D0002073
:1018800003A951F82020D24341F82020401C082809
:10189000F7DB03AB2069002820794FEA40701ED0A7
:1018A0005B462246CDF80080CDE901970D990028CE
:1018B0006FF0010020DAAFF300801FE0C11703AA28
:1018C00000EBD1614B1121F01F0102EB8302411AA1
:1018D00013680120884003431360C7E719E00D999E
:1018E000224600286FF00100009702DAAFF3008073
:1018F00004E0FEF7EFFE01E0AFF3008000280ADA13
:10190000401C06D10C9820B14FF0FF300FB0BDE85D
:10191000F08F5046FAE7E90701D10AF1010A0644BF
:1019200000200C9054E60000CCCCCC0C2DE9F04704
:10193000814616468AB0354878440DC88DE80D00BA
:1019400032487844801C03AC0DC884E80D0041F691
:101950009B300844372190FBF1F290FBF1F5A5F1A3
:10196000800501FB12041B3C02D56442012000E00B
:101970000020DFF898A080460027FA44AAF1BE0AAA
:101980000EE0E0070AD03246684607EB4701012324
:101990000AEB810100F0A0FD8DE8070064107F1CB8
:1019A000002CEED1194F7F44AE3F19E0E80715D067
:1019B00007EB04100DF1180A90E80E008AE80E00FB
:1019C000C068F04201D1981908903246012306A957
:1019D00003A800F081FD03AB83E807006D10641CD1
:1019E000002DE3D14FF0010332466946B8F1000FF4
:1019F00003A802D000F046FD01E000F06DFDC9E94A
:101A00000001C9F808200AB0BDE8F0876858000056
:101A1000007B00F08000704700487047482B002092
:101A20007546FFF7F9FFAE4605006946534620F0BC
:101A30000700854618B020B5FEF71AFCBDE8204027
:101A40004FF000064FF000074FF000084FF0000B7A
:101A500021F00701AC46ACE8C009ACE8C009ACE82D
:101A6000C009ACE8C0098D467047000010B5FFF70B
:101A70000DFD001D10BD00BFC54F00002DE9FF4F3B
:101A80001F464FF03C0987B04FF00042DDE91410CB
:101A900001F10108DDF858A002EA4050039000204F
:101AA00005908346054604460490B969461E089889
:101AB0008847AAF1010A0290BAF1000F3BDD0298B3
:101AC0002E2815D01021FFF721FA00282EDB4FF029
:101AD000010B0599014317D0B9F1000F0BDB4A4602
:101AE000C11700F0FEF905430C43A9F1040905E014
:101AF000012004900BE008B145F00105012005909C
:101B0000049820B9361D02E0049800B1361FB96967
:101B1000089808F101088847BBF1000FAAF1010AF3
:101B20000290C9D00999C1F80080C5E702987028D1
:101B300008D0502806D0F96908988847BBF1000FF3
:101B400014D04FE0002002900120BBF1000F049060
:101B500009D0B969089808F101088847AAF1010974
:101B6000B9F1000F07DCF969089888476FF00100A8
:101B70000BB0BDE8F08F2B2804D02D280CD14FF0EE
:101B8000FF300490B969089808F101088847A9F165
:101B90000109B9F1000FE6DD411CE4D00A21FFF78D
:101BA000B5F90028DFDB029908F1010801EB81019A
:101BB00000EB41000290B969089888470A21FFF7B5
:101BC000A5F9099AA9F10109B9F1000FC2F800803D
:101BD00001DD0028E7DAF969089888470499029836
:101BE00000FB016655EA040004D004F040410900FE
:101BF00002D006E0039898E0A40044EA9574AD0092
:101C0000B61E04F00041080002D16D196441761E31
:101C1000159810F0240F03D04FF00B095C4803E037
:101C20004FF028096FF07D008246564507DAAAEB8F
:101C300006018944B9F1410F01DD4FF0410901204E
:101C40000021A9F1010200F04CF9024628400B46A0
:101C50002140084301D0012100E00021501E0291E3
:101C600043F1FF3128402140084301D0012000E02A
:101C700000200299834651EA0B014FD0002108460B
:101C80004FF00000039900F4400039B100EB8000F0
:101C90004FF4400100EBD07001EA6000801501288C
:101CA00002DD4FF0FF3000E013D0401C36D0029828
:101CB00060B3BBF1000F0CD14A460120002100F0B7
:101CC00010F928402140084301D0012000E0002005
:101CD000E0B101204A46002100F003F90346401913
:101CE0000A4661412D1A8C4111D3B9F1400F09DD2B
:101CF000159810F0240F02D0AAF1340603E0AAF1DF
:101D0000170600E0761C00254FF0004406E05B1E3D
:101D100042F1FF3220EA030521EA0204CAF1010080
:101D2000B04206DA1B490398084301900020009056
:101D30000EE0039AC4F3D321E80A0A43164940EAA5
:101D400044500A433146CDE90002684604F0DEF80B
:101D5000159810F0240F0BD01598C00715D13868CE
:101D6000DDE90012031D3B600068C0E900120CE0D1
:101D700002A8694604F016F81598C00705D138681E
:101D8000029A011D3960006802604046F0E60000DA
:101D900002FCFFFF0000F07F0000F03F2DE9FF4F45
:101DA00092461D4685B04FF00041DDE9124BDDE95A
:101DB00014727F1E01EA4B50414940F0FF4940EA4E
:101DC0000108002122F020004928049102D04E2869
:101DD00028D04CE03BA0012607C88DE80700A96980
:101DE0000698641C88477F1E014606D41DF806002D
:101DF00018B121F0200181420BD0E969069888478B
:101E0000032E34D0082E32D06FF0010009B0BDE8A7
:101E1000F08F761C032E01D0082EE0D1601CCAF88A
:101E20000000DCE7A9690698641C88477F1E2AD455
:101E300020F02000412826D1A9690698641C884713
:101E40007F1E20D420F020004E281CD1A9690698BE
:101E5000641C88477F1E48F4002849F48009CAF8AA
:101E6000004001D4282806D0E969069888475FEA2F
:101E7000CB7012D022E0A9690698641C88477F1EA7
:101E800001D4002803DAE96906988847BCE72928C5
:101E9000F1D1641CCAF80040E9E71BF0240F07D019
:101EA00028680499031D2B600068C0E9001805E04C
:101EB0002868021D2A600068C0F800902046A5E747
:101EC0000000F07F494E46494E4954590000000039
:101ED00010B50446AFF300802046BDE81040FEF781
:101EE000B2B9B2F120030AD5C2F1200301FA02F11E
:101EF00020FA03F300FA02F041EA0301704700FA06
:101F000003F14FF0000070475FEA400C08BF91F00A
:101F1000000F4FEA8C234FEAC12243EA51514FEAA6
:101F20001C5018BF00F5F0404FEA300018BF41F0D8
:101F300000415FEA6C5C00F02980BCF1FF3F08BF04
:101F400040F080407047130C06BF12044FF0100C95
:101F50004FF0000C130E04BF12020CF1080C130F0B
:101F600004BF12010CF1040C930F04BF92000CF19A
:101F7000020CD30F04BF52000CF1010C11464FF0BC
:101F80000002A0F11F00A0EB0C00704711F0004F01
:101F900008BF704731F000413FF4D5AF0B0C06BFCE
:101FA00009044FF0100C4FF0000C0B0E04BF090297
:101FB0000CF1080C0B0F04BF09010CF1040C8B0F82
:101FC00004BF89000CF1020CCB0F04BF49000CF1D7
:101FD000010CCCF12003A0EB0C0022FA03F302FA6F
:101FE0000CF241EA030100F10100704720F07F4C40
:101FF00080EA030023F07F47ACEB070303F57C5333
:1020000000F0004003F1FF032DE980494FEA154B32
:1020100009B44FEA144325EA0B4E24EA03480FF2B1
:10202000042606EB132749083E785FEA320203FBD9
:102030000667C7F5000707FB06F64FEA54374FEA75
:10204000D64606F1020607FB066CCCF1005C4FEAAF
:102050001C472CEA074C07FB06F40CFB06F504EBC7
:1020600015464FEA961634BF00204FF000404FEA65
:10207000D13706FB07FC4FEA1C4C0CFB0BF7D21BBD
:1020800003FB0CF761EB07010CFB0EF7B0EB07400D
:1020900072EB17420CFB08F734BFA2EB0742B2EB1E
:1020A000074261EB17414FEA0C444FEA910706FBE8
:1020B00007FC4FEA1C4C0CFB0BF7B0EBC74072EB74
:1020C000573203FB0CF734BFA2EBC742B2EBC74257
:1020D00061EB57310CFB0EF7B0EBC70072EB577298
:1020E0000CFB08F734BFA2EBC702B2EBC70261EBEF
:1020F0005771039F4FEA816141EA921104EBCC04CE
:102100004FEAD1374FEA826206FB07FC42EA90129F
:102110004FEA80604FEA1C4C0CFB0BF7D21B03FB11
:102120000CF761EB07010CFB0EF7B0EB074072EB0D
:1021300017420CFB08F734BFA2EB0742B2EB074291
:1021400061EB17414FEA8C554FEA910704EB9C2451
:1021500006FB07FC4FEA1C4C0CFB0BF7B0EBC7402F
:1021600072EB573203FB0CF734BFA2EBC742B2EB62
:10217000C74261EB57310CFB0EF7B0EBC70072EBB7
:1021800057720CFB08F734BFA2EBC702B2EBC702D1
:1021900061EB577115EB4C254FEA816141EA9211D1
:1021A0004FEA82624FEAD13742EA901206FB07FCFF
:1021B00044F100044FEA80604FEA1C4C0CFB0BF723
:1021C000D21B03FB0CF761EB07010CFB0EF7B0EB26
:1021D000074072EB17420CFB08F734BFA2EB074233
:1021E000B2EB074261EB174115EB1C154FEA813149
:1021F00041EA92414FEA823242EA90424FEA80300D
:102200004FEA0C7644F1000448EA03434EEA0B48D7
:102210004FF0000EB2EB080C71EB030724BF6246CF
:1022200039464EEB0E0E4FF0000B0018524149415B
:102230004BEB0B0BB2EB080C71EB03077BF1000BC4
:1022400024BF624639464EEB0E0E4FF0000B0018CD
:10225000524149414BEB0B0BB2EB080C71EB0307FE
:102260007BF1000B24BF624639464EEB0E0E51EA5D
:10227000020718BF46F0010616EB0E7655F1000274
:1022800054F1000103D5BDE88901BDE80088BDE82F
:102290008901BDE80048B619524141EB0101A3F1A3
:1022A0000103704780807F7E7D7C7B7A79787776AA
:1022B00076757473727171706F6E6E6D6C6C6B6A23
:1022C0006A696868676666656464636362616160C1
:1022D000605F5F5E5E5D5D5C5C5B5B5A5A5959583E
:1022E00058575756565555555454535352525251A8
:1022F000515050504F4F4F4E4E4D4D4D4C4C4C4BFE
:102300004B4B4A4A4A494949484848474747474644
:102310004646454545444444444343434342424280
:102320004241414146EA0646A3F570534FEA16463C
:1023300046EA42564FEAD22242EA415210B54FEAEB
:10234000D121A3F1010300F02FF820F0004000F1AB
:10235000020C00F0004701EB00501146BCF5006F85
:1023600040EA070000D210BDBAF1000F0AD01CB538
:1023700003B44FF004004FF004014FF000000FBC15
:10238000BDE810404FF00001BBF1010FB9BF044898
:102390004FF0FF310348002140EA070010BD00BFA5
:1023A000FFFFEF7F0000F07F002B9C4630D47700CA
:1023B0002BD01CB54FEA370703B44FF010004FF095
:1023C0001001BAF1000F06D0BCF1000FDCBF40F0E5
:1023D000080040F008014FF000000FBCBDE81040BD
:1023E0000BF1010BBBF1010F08BF5FEA170722BF1A
:1023F00012F1010211F101014FF0004143F100031C
:1024000000F0004043EA00007047F9D35708D0E7D6
:1024100046EA064613F1400F4FEA16461FDD13F158
:10242000200FDFBF16430A46002120335B42BED097
:10243000C3F1200746EA064602FA07F74FEA1646B6
:1024400046EA0706C3F1200722FA03F201FA07F76A
:1024500021FA03F14FF0000342EA0702A7E746EA38
:10246000020646EA06464FEA164646EA0106BCBFA1
:1024700046EA0646360C4FF000034FF000024FF0DC
:10248000000194E72DE9804C9A46934670B491E898
:10249000380007C831EA400C48BF34EA430C03D582
:1024A000FFF7A4FDFFF780FFF0BCBDE8008C2DE92D
:1024B000804C9A46934670B491E8380007C831EAD8
:1024C000400C48BF34EA430C03D5FFF78FFDFFF7FC
:1024D00029FFF0BCBDE8008C2DE9804C9A4693465C
:1024E00070B491E8380007C810F0804F08BF13F0AF
:1024F000804F03D100F01AF8FFF756FFF0BCBDE89B
:10250000008C2DE9804C9A46934670B491E83800CF
:1025100007C810F0804F08BF13F0804F03D100F0C0
:1025200005F8FFF7FFFEF0BCBDE8008C20F07F4708
:1025300080EA030023F07F4C07EB0C03A3F57C53E8
:1025400000F00040A3F1FE0392F0000F00F0B38012
:1025500095F0000F00F077802DE901494FEA114016
:102560004FEA144621EA004800FB06FC24EA06472D
:1025700008FB06F607FB08F800FB07F718EB064810
:102580004CEB164C4FEA124B18EB07484FEA154636
:102590004CEB174022EA0B4E0BFB06FC25EA0647E4
:1025A0000EFB06F607FB0EFE0BFB07F71EEB064EB7
:1025B0004CEB164C4FF000061EEB074E4CEB174B46
:1025C00018EB0B0840F1000018EB0E0B58EB00085D
:1025D00040F100008F1A4FF000013CBFC943661B59
:1025E00014BFB5EB040C00213CBFC943F61B4FEAF6
:1025F00017444EEA8E0E27EA04454FEA1C4704FBB7
:1026000007622CEA074C05FB07F70CFB05F604FBF9
:102610000CFC16EB074642EB174216EB0C4642EB5E
:102620001C421BEB060658EB0202414146EA9E069D
:1026300001D5BDE80189B619524141EB0101A3F171
:102640000103BDE801894FEA14454FEA114724EA26
:10265000054621EA074C05FB07F406FB07F70CFBD0
:1026600006F105FB0CFC11EB074144EB17444FEA64
:10267000124711EB0C4144EB1C4422EA074C05FBCA
:1026800007F206FB07F70CFB06F605FB0CFC16EB46
:10269000074642EB174216EB0C4642EB1C456A1804
:1026A00054F1000148BF7047B619524141EB010196
:1026B000A3F10103704795F0000F37D04FEA1142A4
:1026C0004FEA144721EA024624EA074C02FB07F1CD
:1026D00006FB07F70CFB06F402FB0CFC14EB0744AB
:1026E00041EB17414FEA154714EB0C4441EB1C41F9
:1026F00025EA074C02FB07F506FB07F70CFB06F67D
:1027000002FB0CFC16EB074645EB174516EB0C4697
:1027100045EB1C42121951F1000148BF7047B61930
:10272000524141EB0101A3F1010370474FEA144507
:102730004FEA114724EA054621EA074C05FB07F159
:1027400006FB07F70CFB06F24FF0000605FB0CFC3E
:1027500012EB074241EB174112EB0C4251EB1C41CB
:1027600048BF7047921841EB0101A3F10103704784
:1027700030B587B00446142102A8FEF7B7F800BFB1
:10278000002001902748006840F0010025490860BA
:102790000846006800F00100019000BF00BF00BFC4
:1027A000002001901F481030006840F400301D499F
:1027B000103108600846006800F40030019000BF46
:1027C00000BF0C2002900220039001200490022000
:1027D00005900720069002A9134800F067FE1348F1
:1027E000134908600846446000218160C1600161AE
:1027F0000C21416100218161C16101F0B9FF0546F1
:10280000302229460B48FEF73FF8094801F018FE30
:1028100010B1012007B030BD07A003F0DBFE00209F
:10282000F8E7000030380240000002400044004059
:102830002C280020F02800205245414459204859B6
:1028400053542D56310D0A007CB500252AE024484A
:1028500000684068C4B20A2C01D00D2C0ED121486A
:102860000088F0B1002020491E4A1288885408468A
:1028700003F0D4FB00201B49088012E019480088AF
:102880007F2808D2174801880088401C154A10800C
:102890001548445405E000201249088013A003F0B5
:1028A00099FE00BF0E4800680068C0F3401020B1D8
:1028B0002846691CCDB22028C9D3094800680068A1
:1028C000C0F3C00050B10648006800680190044899
:1028D00000684068009000BF00BF00BF7CBD0000E2
:1028E0002C28002000000020702800204552522093
:1028F0004C494E450D0A000010B52DED108BD4B09B
:10290000044694ED0A0A10EE101A084604F09EFAE6
:1029100041EC180B94ED090A10EE101A084604F069
:1029200095FA41EC190B94ED080A10EE101A0846BE
:1029300004F08CFA41EC1A0B94ED070A10EE101A11
:10294000084604F083FA41EC1B0B94ED060A10EEE6
:10295000101A084604F07AFA41EC1C0B94ED050AB3
:1029600010EE101A084604F071FA41EC1D0B94EDBC
:10297000040A10EE101A084604F068FA41EC1E0B27
:1029800094ED030A10EE101A084604F05FFA41ECC9
:102990001F0B94ED020A10EE101A084604F056FAC6
:1029A000CDE91A0194ED010A10EE101A084604F060
:1029B0004DFACDE9180194ED000A10EE101A084600
:1029C00004F044FACDE91601A08D14908DED128B20
:1029D0008DED109B8DED0EAB8DED0CBB8DED0ACB0F
:1029E0008DED08DB8DED06EB8DED04FB9DED1A0BF7
:1029F0008DED020B9DED180B8DED000B9DED160B73
:102A000053EC102B05491CA8FDF7C8FC1CA803F0CB
:102A1000E1FD54B0BDEC108B10BD000064720008E5
:102A200010B5044604A003F0D5FD204603F0D2FD06
:102A300003A003F0CFFD10BD45525220000000005E
:102A40000D0A000010B504460748007808B90020B8
:102A500010BD302205492046FDF716FF002002492F
:102A600008700120F4E7000002000020F028002098
:102A700000BFFEE770B50446A56B284600F0FEF8DF
:102A80000120287170BD70B50446A56B284600F082
:102A9000C1F80120287170BD70B50546AC6B206986
:102AA00040F004002061204600F0EAF80120207187
:102AB00070BD70B50546AC6B206940F00400206124
:102AC000204600F0A9F80120207170BD70B50446C1
:102AD000A56B284600F0D3F870BD70B50446A56B11
:102AE000284600F098F870BD10B5024800F0FEFAD4
:102AF00010BD0000402A002010B5024800F0F6FA90
:102B000010BD0000A02A00200146087810381823C4
:102B1000B0FBF3F20848805CC865032A05D9086851
:102B20006FF30900001D886503E008686FF3090072
:102B30008865886D7047000090700008014600208D
:102B40008A6A8B69CBB932B1012A0DD0022A03D02F
:102B5000032A10D10EE000BFCB6A03F08073B3F1FB
:102B6000807F00D1012007E0CB6AB3F1C07F00D1A4
:102B7000012001E000E000BF34E08B69B3F5005FA5
:102B80001AD132B1012A07D0022A03D0032A11D167
:102B90000AE000BF01200EE0CB6A03F08073B3F1BE
:102BA000807F00D1012006E0CB6AB3F1C07F00D165
:102BB000012000E000BF15E032B1012A05D0022A51
:102BC00004D0032A0CD103E000BF00BF012008E0BD
:102BD000CB6A03F08073B3F1807F00D1012000E065
:102BE00000BF00BF704730B50468246824F4802417
:102BF00005682C60046863608468402C04D1046814
:102C0000A2600468E16003E00468A1600468E26017
:102C100030BD7047704770477047F0B5034600BF3E
:102C20005879012801D10220F0BD0120587100BF60
:102C3000022018711868046802F0100640F6FE7051
:102C4000B0408443D1E9000640EA060502F01000D6
:102C500005FA00F00443186804601868006802F080
:102C60001007C026BE40B0431E68306001201871B6
:102C700000BF0020587100BF00BFD5E77047704704
:102C8000704710B504460CB9012010BD207920B959
:102C900000206071204600F009F802202071002019
:102CA0002061012020710020EFE7000010B58AB0FC
:102CB0000446142105A8FDF719FE00200390049096
:102CC000019002906749206888427DD100BF00BF13
:102CD000002000906448006840F00050624908609D
:102CE0000846006800F00050009000BF00BF00BF21
:102CF00000BF00BF002000905B481038006840F023
:102D000001005949103908600846006800F00100C8
:102D1000009000BF00BF00BF00BF00BF00200090B8
:102D20000846006840F4001008600846006800F497
:102D30000010009000BF00BF00BF00BF00BF002018
:102D400000904948006840F0200047490860084664
:102D5000006800F02000009000BF00BF00BF3020DE
:102D6000059003200690002007900220089005A9F6
:102D70003E4800F09BFB14200390002004900022AA
:102D800003A92046FFF749FF102203A92046FFF7B9
:102D900044FF3748374908604FF060604860402181
:102DA000344881600021C1604FF4806101614900B5
:102DB0004161890081614911C1614FF44031016273
:102DC00000214162816200E04AE0C162016300F0DB
:102DD000ADFA00BF2748E060846300BF00221146BF
:102DE000102000F0CAFC102000F0B7FC204818307A
:102DF000214908604FF06060486040211E488160B2
:102E00000021C1604FF48061016149004161890086
:102E100081614911C1614FF4403101620021416279
:102E20008162C162016300F081FA00BF1248A060B4
:102E3000846300BF00221146112000F09EFC112087
:102E400000F08BFC0D480E490860084601F0EAF8D6
:102E5000202001900020029001A9094801F088F883
:102E60000AB010BD0074004040380240000002402B
:102E700088600240402A0020A02A00200014004060
:102E8000002B00202DE9F04704460D4616469946D2
:102E9000089F4FF00008C24600BF6079012802D1A8
:102EA0000220BDE8F0870120607100BF0220207180
:102EB00015BB3C48A168C8633B48A16808643B480F
:102EC000A168C8642068006840F4805021680860E8
:102ED00027B1042F06D0082F0CD107E0206800F19D
:102EE000080A08E0206800F10C0A04E0206800F1FC
:102EF000100A00E000BF22E02D48E168C8632D48B9
:102F0000E16808642C48E168C8642068006840F003
:102F100080502168086027B1042F06D0082F0CD1FB
:102F200007E0206800F1140A08E0206800F1180AA0
:102F300004E0206800F11C0A00E000BF00BF6DB98A
:102F40002068006840F40050216808604B465246F3
:102F50003146A06800F060FA80460CE02068006806
:102F600040F00050216808604B4652463146E06808
:102F700000F052FA804600BF0020607100BFB8F137
:102F8000000F09D12068006805F01002012191406E
:102F900008432168086003E0206940F004002061D4
:102FA00040467EE7752A0008CD2A0008992A0008C5
:102FB000872A0008DB2A0008B32A000870B50446F7
:102FC0000D462068006805F010024FF480519140D2
:102FD0008843216808602068006805F0100201211C
:102FE00091408843216808604DB9A06800F014F84A
:102FF0002068006820F400502168086008E0E0685C
:1030000000F00AF82068006820F00050216808608D
:1030100001202071002070BD70B50446A56D00F040
:1030200045FB064694F83500022808D080206065EC
:1030300000BF002084F8340000BF012070BD20686C
:10304000006820F01600216808602068406920F0C0
:10305000800021684861206C08B9A06C28B1206804
:10306000006820F00800216808602068006820F0EF
:1030700001002168086010E000F018FB801B0528A3
:103080000BD920206065032084F8350000BF0020A4
:1030900084F8340000BF0320D0E72068006800F007
:1030A00001000028E8D194F85C103F208840A86017
:1030B000012084F8350000BF002084F8340000BFF0
:1030C00000BFBBE7014691F83500022803D08020FD
:1030D000486501207047052081F8350008680068C0
:1030E00020F001000A6810600020F3E7F8B50446FC
:1030F000002000908C4800684FF41651B0FBF1F7A7
:10310000A56D2E6894F85C1008208840304098B176
:103110002068006800F0040070B12068006820F0AA
:1031200004002168086094F85C1008208840A860BA
:10313000606D40F00100606594F85C1001208840EB
:10314000304068B12068406900F0800040B194F8D8
:103150005C1001208840A860606D40F0020060654E
:1031600094F85C1004208840304068B12068006802
:1031700000F0020040B194F85C1004208840A86080
:10318000606D40F00400606594F85C101020884089
:10319000304078B32068006800F0080050B394F81D
:1031A0005C1010208840A8602068006800F480202F
:1031B00080B12068006800F4002028B9206CC8B1F4
:1031C0002046216C884715E0A06C98B12046A16C80
:1031D00088470FE02068006800F4807028B92068F4
:1031E000006820F0080021680860206C10B12046BB
:1031F000216C884794F85C102020884030400028DB
:1032000065D02068006800F0100000285FD094F8B6
:103210005C1020208840A86094F83500052828D14B
:103220002068006820F01600216808602068406966
:1032300020F0800021684861206C08B9A06C28B19A
:103240002068006820F008002168086094F85C108D
:103250003F208840A860012084F8350000BF00208E
:1032600084F8340000BF206D10B12046216D8847DE
:10327000F8BD2068006800F4802080B120680068F4
:1032800000F4002028B9606C10B12046616C8847BA
:103290001DE0E06BD8B12046E16B884717E020685D
:1032A000006800F4807068B92068006820F01000A1
:1032B00021680860012084F8350000BF002084F8F0
:1032C000340000BFE06B10B12046E16B8847606DB1
:1032D00038B3606D00F00100F0B1052084F83500CE
:1032E0002068006820F001002168086000BF009895
:1032F000401C0090B84200D905E02068006800F04A
:1033000001000028F3D100BF012084F8350000BF80
:10331000002084F8340000BFE06C10B12046E16C5E
:10332000884700BFA4E70000040000202DE9F04119
:103330000446002500F0BAF9074614B90120BDE89B
:10334000F081606A00B100BF022084F8350000BF40
:10335000002084F8340000BF2068006820F00100DD
:10336000216808600AE000F0A1F9C01B052805D912
:1033700020206065032084F83500E0E720680068BD
:1033800000F001000028EED12068056821480540C2
:10339000D4E901010843E1680843216908436169F0
:1033A0000843A1690843E1690843216A08430543CA
:1033B000606A042803D1D4E90B010843054320685F
:1033C00005602068456925F00705606A0543606A65
:1033D00004280DD1A06A0543E06A48B12046FFF7F2
:1033E000ADFB28B140206065012084F83500A6E7D8
:1033F000206845612046FFF787FB064694F85C107D
:103400003F208840B06000206065012084F83500CE
:10341000002094E73F8010F02DE9F04704460D4668
:1034200016461F464FF00008D4F8589000BF94F895
:103430003400012802D10220BDE8F087012084F881
:10344000340000BF94F83500012825D1022084F80B
:103450003500002060653B46324629462046FFF78E
:10346000C2FB94F85C103F208840C9F8080020682F
:10347000006840F0160021680860206C28B12068C0
:10348000006840F00800216808602068006840F08B
:1034900001002168086006E000BF002084F83400C5
:1034A00000BF4FF002084046C6E70000F8B50246EC
:1034B0000B460025002400200021D6E0012606FA54
:1034C00001F51E6806EA0504AC4274D11E7906F0C7
:1034D0000306012E04D01E7906F00306022E13D136
:1034E00090684F000326BE40B0434F00DE68BE40E8
:1034F00030439060506801268E40B0431E79C6F379
:1035000000168E40304350601E7906F00306032EED
:1035100009D0D0684F000326BE40B0434F009E68DC
:10352000BE403043D0601E7906F00306022E13D150
:10353000CF0802F1200656F827004E07F70E0F2697
:10354000BE40B0434F07FF0E1E69BE403043CF0858
:1035500002F1200646F8270010684F000326BE40FF
:10356000B0431E7906F003064F00BE4030431060A2
:103570005E6806F44036002E76D000BF0026009626
:103580003C4E366846F480463A4F3E603E463668CA
:1035900006F48046009600BF00BF374E8F0856F8ED
:1035A00027008E07370F0F26BE40B043334EB2427E
:1035B00002D1002624E057E0314EB24201D101266B
:1035C0001EE0304EB24201D1022619E02E4EB24228
:1035D00001D1032614E02D4EB24201D104260FE0A2
:1035E0002B4EB24201D105260AE02A4EB24201D149
:1035F000062605E0284EB24201D1072600E0082643
:103600008F073F0FBE4030431B4E8F0846F8270000
:10361000224E3068A0435E6806F4801606B120434F
:103620001E4E3060361D3068A0435E6806F40016FA
:1036300006B12043194E361D3060184E361F3068D3
:10364000A0435E6806F4003606B12043134E361FD1
:103650003060361F3068A0435E6806F4803606B1DD
:1036600020430E4E083E3060491C1029FFF426AF5F
:10367000F8BD000044380240083801400000024014
:103680000004024000080240000C0240001002400A
:103690000014024000180240001C0240083C014097
:1036A00001480068000C7047002004E001480068F1
:1036B000704700001400002003480068034909789F
:1036C0000844014908607047140000201C000020D5
:1036D00010B50D48006840F400700B4908600846BA
:1036E000006840F4806008600846006840F480701C
:1036F0000860032000F080F80F2000F007F800F0C9
:103700002BF8002010BD0000003C024070B50446BC
:103710000E4800784FF47A71B1FBF0F00C4909685B
:10372000B1FBF0F5284600F009FC08B1012070BD9E
:10373000102C07D200222146501E00F01EF805482A
:10374000046001E00120F2E70020F0E71C00002007
:103750000400002018000020704701460846002899
:1037600009DB00F01F0301229A4043099B0003F18B
:10377000E023C3F8002100BF70472DE9F05F8046C9
:103780000D461646002701F04FFD074639462A46EA
:10379000334601F00700C0F1070ABAF1040F02D95D
:1037A0004FF0040A01E0C0F1070AD14600F1040A13
:1037B000BAF1070F02D24FF0000A01E0A0F1030AAC
:1037C000D4464FF0010A0AFA09FAAAF1010A0AEAF4
:1037D000020A0AFA0CFA4FF0010B0BFA0CFBABF1E0
:1037E000010B0BEA030B4AEA0B042146404601F0A9
:1037F00023FDBDE8F09F000000BF00F00702064B6C
:1038000019684FF6FF031940044B0B4343EA0221AA
:10381000014B196000BF70470CED00E00000FA0595
:1038200070B504460D460CB9012070BD58480068BB
:1038300000F00700A84209D255490D7008460068FB
:1038400000F00700A84201D00120EEE7207800F048
:10385000020002281DD1207800F00400042805D1C0
:103860004C48006840F4E0504A490860207800F075
:103870000800082805D14748006840F460404549E1
:1038800008604448006820F0F000A16808434149FE
:103890000860207800F00100A8B36068012807D113
:1038A0003C4808380068C0F34040B8B90120BCE784
:1038B0006068022802D06068032807D135480838BC
:1038C0000068C0F3406048B90120AEE731480838CD
:1038D0000068C0F3400008B90120A6E72D48006841
:1038E00020F00300616808432A490860FFF7DEFE04
:1038F000064609E0FFF7DAFE801B41F28831884274
:1039000002D9032091E707E02248006800F00C008C
:103910006168B0EB810FEDD11D48006800F0070031
:10392000A84209D91A490D700846006800F007003E
:10393000A84201D0012078E7207800F00400042894
:1039400007D11448006820F4E050E16808431149A9
:103950000860207800F00800082808D10D480068A9
:1039600020F46040216940EAC1000A49086000F083
:103970003FF808490968C1F30311074A515CC84080
:103980000649086006480068FFF7C0FE00204CE7C3
:10399000003C024008380240787000080400002013
:1039A0001800002001480068704700000400002053
:1039B00000B5FFF7F7FF04490968C1F38221034A04
:1039C000515CC84000BD0000083802408870000803
:1039D00000B5FFF7E7FF04490968C1F34231034A24
:1039E000515CC84000BD00000838024088700008E3
:1039F0002DE9F047002400250026A146254800684F
:103A000000F00C0020B1042805D008283AD105E0C8
:103A1000DFF8849039E0DFF8849036E01D48001F1D
:103A2000006800F03F041B48001F006800F480009D
:103A300078B11A481749091F0968C1F38811A0FB1A
:103A400001700146224600233846FCF724FC054657
:103A50000EE011480F49091F0968C1F38811A0FB46
:103A600001700146224600233846FCF714FC054647
:103A70000848001F0068C0F30140401C4600B5FB29
:103A8000F6F902E0DFF8109000BF00BF4846BDE83D
:103A9000F0870000083802400024F40000127A0089
:103AA000F8B504460CB90120F8BD207800F00100FB
:103AB000002874D0F948006800F00C0004280DD0EC
:103AC000F648006800F00C00082813D1F348001FE6
:103AD000006800F48000B0F5800F0BD1EF48083883
:103AE0000068C0F34040002859D06068002856D1D3
:103AF0000120D9E700BF6068B0F5803F08D1E748F2
:103B00000838006840F48030E449083908601EE055
:103B10006068B0F5A02F0DD1E0480838006840F487
:103B20008020DE49083908600846006840F480308B
:103B300008600CE0D9480838006820F48030D74984
:103B4000083908600846006820F48020086000BF3B
:103B5000606890B1FFF7AAFD054606E0FFF7A6FDF5
:103B6000401B642801D903209EE7CC480838006830
:103B7000C0F340400028F1D011E0FFF797FD054663
:103B800006E0FFF793FD401B642801D903208BE773
:103B9000C24808380068C0F340400028F1D12078BE
:103BA00000F0020002285FD1BC48006800F00C0061
:103BB00058B1BA48006800F00C0008281CD1B7487A
:103BC000001F006800F48000B0B9B44808380068ED
:103BD000C0F3400020B1E068012801D0012063E774
:103BE000AE480838006820F0F800216940EAC100BA
:103BF000AA490839086037E0E06800B30120A84905
:103C00000860FFF753FD054606E0FFF74FFD401B38
:103C1000022801D9032047E7A04808380068C0F30C
:103C200040000028F1D09D480838006820F0F800D6
:103C3000216940EAC10099490839086014E0002070
:103C400097490860FFF732FD054606E0FFF72EFDB5
:103C5000401B022801D9032026E790480838006855
:103C6000C0F340000028F1D1207800F008000828B7
:103C70002CD16069A8B101208A490860FFF716FDC0
:103C8000054606E0FFF712FD401B022801D903207C
:103C90000AE782486C300068C0F340000028F1D089
:103CA00014E000207F490860FFF700FD054606E0AC
:103CB000FFF7FCFC401B022801D90320F4E67748FB
:103CC0006C300068C0F340000028F1D1207800F08B
:103CD0000400042870D1002770483830006800F0D4
:103CE000805090B900BF002000906C4838300068C8
:103CF00040F080506949383108600846006800F09B
:103D00008050009000BF00BF01276748006800F4A2
:103D10008070B0B96448006840F4807062490860FF
:103D2000FFF7C4FC054606E0FFF7C0FC401B022875
:103D300001D90320B8E65C48006800F480700028D0
:103D4000F2D000BFA068012808D15448683000684C
:103D500040F001005149683108601DE0A068052865
:103D60000DD14E486830006840F004004B4968317E
:103D700008600846006840F0010008600CE0474811
:103D80006830006820F00100444968310860084646
:103D9000006820F00400086000BFA068A8B1FFF729
:103DA00085FC054609E0FFF781FC401B41F28831A4
:103DB000884202D9032077E626E038486830006858
:103DC000C0F340000028EED013E0FFF76FFC05467B
:103DD00008E0FFF76BFC401B41F28831884201D9B3
:103DE000032061E62D4868300068C0F340000028D9
:103DF000EFD1012F07D129483830006820F08050DA
:103E000026493831086000BFA069002845D0234802
:103E1000006800F00C0008285DD0A069022845D198
:103E200000201F490866FFF741FC054606E0FFF742
:103E30003DFC401B022801D9032035E6174808380D
:103E40000068C0F340600028F1D1D4E907010843BD
:103E5000616A40EA81110122A06AC2EB500041EA86
:103E600000412C20005D41EA00600C49091F0860F8
:103E700001200B490866FFF719FC054606E0FFF72D
:103E800015FC401B022801D903200DE60348083821
:103E90000068C0F340600028F1D049E008380240D3
:103EA00000004742800E4742007000400020214938
:103EB0000866FFF7FBFB054606E0FFF7F7FB401B34
:103EC000022801D90320EFE51B480068C0F34060D9
:103ED0000028F2D12CE0A069012800D1E4E51648C1
:103EE000001D0668A069012820D006F48001E06961
:103EF00081421BD106F03F01206A814216D147F66C
:103F0000C0703040616AB0EB811F0FD106F44031C0
:103F10000122A06AC2EB5000B1EB004F06D106F0BF
:103F200070612C20005DB1EB006F01D00120BBE57A
:103F30000020B9E5000047420038024070B5044651
:103F40002546681EB0F1807F01D301200FE0681E76
:103F50004FF0E02148610F214FF0FF3001F06CF984
:103F600000204FF0E021886107200861002070BD2B
:103F700030B502460B4600BF92F83C00012801D143
:103F8000022030BD012082F83C0000BF022082F8F0
:103F90003D00106844681068816824F07004186857
:103FA000044310684460184D1068A8421BD0106884
:103FB000B0F1804F17D0154D1068A84213D0144DA2
:103FC0001068A8420FD0134D1068A8420BD0124DB4
:103FD0001068A84207D0114D1068A84203D0104DB8
:103FE0001068A84205D121F080015868014310688B
:103FF0008160012082F83D0000BF002082F83C0073
:1040000000BF00BFBDE70000000001400004004009
:1040100000080040000C0040000401400040014046
:104020000018004010B504460CB9012010BD94F8EA
:104030003D0028B9002084F83C00204600F025F817
:10404000022084F83D00211D206800F0CBFD0120F6
:1040500084F8460000BF84F83E0001213F2001554E
:10406000402001554120015500BF00BF012084F8C8
:10407000420043200155442001554520015500BF11
:10408000012084F83D000020D0E77047014691F8F8
:104090003D00012801D001207047022081F83D0039
:1040A0001A4B086898421BD00868B0F1804F17D0AF
:1040B000174B0868984213D0164B086898420FD0E7
:1040C000154B086898420BD0144B0868984207D0EB
:1040D000134B0868984203D0124B086898420CD1E1
:1040E0000868806800F00702062A0CD0086800689B
:1040F00040F001000B68186005E00868006840F0B7
:1041000001000B6818600020C6E7000000000140B5
:104110000004004000080040000C00400004014082
:104120000040014000180040014600BF0868006AD6
:1041300041F21112104050B90868006A9210104004
:1041400028B90868006820F001000A68106000BF04
:10415000012081F83D000020704770477047000043
:104160002DE9F84F0446206805682068C668206875
:1041700047694FF00009CA4605F00F09B9F1000F71
:104180000AD105F0200038B106F0200020B1204609
:1041900000F0E4FDBDE8F88FB9F1000F7CD007F026
:1041A000010018B906F49070002875D005F00100E0
:1041B00030B106F4807018B1206C40F0010020642A
:1041C00005F0040030B107F0010018B1206C40F098
:1041D0000200206405F0020030B107F0010018B1C0
:1041E000206C40F00400206405F0080048B106F09F
:1041F000200010B907F0010018B1206C40F0080051
:104200002064206C002846D005F0200028B106F07C
:10421000200010B1204600F0A1FD20684069C0F3E5
:10422000801A206C00F0080010B9BAF1000F2DD0F0
:10423000204600F04DFD2068406900F04000402815
:1042400020D100BF00BF2168143151E8001F21F0C8
:1042500040002168143141E80002002AF3D100BF78
:10426000A06B50B17548A16B0865A06BFEF72AFFE3
:1042700088B1A06B016D88470DE02046FFF76EFF07
:1042800009E009E02046FFF769FF04E02046FFF758
:1042900065FF002020647DE7206B012876D105F0C2
:1042A0001000002872D006F010000028FAD000BFDD
:1042B000002000902068006800902068406800900E
:1042C00000BF00BF2068406900F0400040285ED178
:1042D000A06B006840681FFA80F8B8F1000F54D056
:1042E000A08D404551DDA4F82E80A06BC069B0F5CB
:1042F000807F43D000BF00BF21680C3151E8001F10
:1043000021F4807021680C3141E80002002AF3D1C9
:1043100000BF00BF00BF2168143151E8001F21F029
:1043200001002168143141E80002002AF3D100BFE6
:1043300000BF00BF2168143151E8001F21F0400088
:104340002168143141E80002002AF3D100BF202087
:1043500084F83E000020206300BF00BF21680C31BC
:1043600051E8001F21F0100021680C3141E80002E3
:10437000002AF3D100BFA06BFEF74EFEA08DE28DA8
:10438000801A81B22046FFF7E8FE03E740E0A08DE7
:10439000E18D401A1FFA80F8E08DC0B3B8F1000F2C
:1043A00035D000BF00BF21680C3151E8001F21F457
:1043B000907021680C3141E80002002AF3D100BF5F
:1043C00000BF00BF2168143151E8001F21F0010037
:1043D0002168143141E80002002AF3D100BF2020F7
:1043E00084F83E000020206300BF00BF21680C312C
:1043F00051E8001F21F0100021680C3141E8000253
:10440000002AF3D100BF41462046FFF7A6FEC1E6D1
:1044100005F0800030B106F0800018B1204600F0B1
:1044200054FEB7E605F0400030B106F0400018B188
:10443000204600F083FCADE600BFABE6BD4C0008B3
:1044400010B504460CB9012010BDA06900B100E010
:1044500000BF94F83D0028B9002084F83C002046B5
:1044600000F028F8242084F83D002068C06820F47B
:1044700000502168C860204600F0ECFC206800690C
:1044800020F49040216808612068406920F02A00EB
:10449000216848612068C06840F400502168C86005
:1044A00000202064202084F83D0084F83E00002095
:1044B000CAE7000010B586B004462E49206888423D
:1044C00055D100BF00BF002000902B48006840F08D
:1044D0001000294908600846006800F010000090AC
:1044E00000BF00BF00BF00BF00BF002000902248F7
:1044F0001438006840F001001F491439086008466C
:10450000006800F00100009000BF00BF00BF00BFC6
:1045100000BF002000900846006840F001000860DD
:104520000846006800F00100009000BF00BF00BF17
:10453000481501900220029001200390022004906F
:104540000720059001A90D48FEF7B0FF4FF48060E9
:1045500001900720059001A90848FEF7A7FF252034
:10456000FFF7FBF8032211462520FFF706F906B0F6
:1045700010BD00000010014044380240000002401D
:1045800070B504460D46164694F83E00202816D114
:1045900005B10EB9012070BD00BF94F83C000128A0
:1045A00001D10220F7E7012084F83C0000BF002081
:1045B000206332462946204600F062FDEBE70220E8
:1045C000E9E7000010B504462049206888423BD145
:1045D0001F48008800F4004088BB1D48008800F494
:1045E000804070B11B4800780A2803D00020184989
:1045F000088024E01648008840F4004014490880F0
:104600001DE0144800780D2806D11148008840F4B8
:1046100080400F49088012E00E4800780C49098854
:10462000C1F30D010C4A505409480088401C084948
:10463000088008460088C72801DD00200880012284
:1046400004490648FFF79CFF10BD00000010014020
:10465000100000201200002020290020E82900205E
:104660002DE9F84F04460E46174699464FF0000ACA
:1046700094F83D0020285AD106B117B90120BDE8B1
:10468000F88F00BF94F83C00012801D10220F6E722
:10469000012084F83C0000BF00202064212084F821
:1046A0003D00FFF703F88246A784E784A068B0F5D1
:1046B000805F04D1206910B90025B04602E035467C
:1046C0004FF0000800BF002084F83C0000BF1BE052
:1046D0005346002280212046CDF8009000F025FDB1
:1046E00008B10320CBE745B9B8F80000C0F30800D3
:1046F0002168486008F1020803E0287821684860D2
:104700006D1CE08C401EE084E08C0028E0D1534614
:10471000002240212046CDF8009000F006FD08B1AF
:104720000320ACE7202084F83D000020A7E702200A
:10473000A5E7704700BFFEE700200CE0084931F80C
:104740001010084A22F81010074931F81010074AD3
:1047500022F81010401CB0F5007FEFD37047000026
:104760002008002020000020200C00202004002031
:10477000004870474870000870B52DED0A8B04465C
:10478000A4B194ED000AB5EEC00AF1EE10FA0DD90D
:1047900094ED010AB5EEC00AF1EE10FA06D994EDD7
:1047A000030AB5EEC00AF1EE10FA02D8BDEC0A8B8E
:1047B00070BD94ED020AD4ED030A80EE201AB0EE2B
:1047C000418A9FEDEA1ADFEDEA0AB0EE480A01F0ED
:1047D000B0FBF0EE40BAB0EE6B0A00F0BDFDD4EDD8
:1047E000010A80EE809A9FEDE30AB4EEC09AF1EEE2
:1047F00010FA03D29FEDDF0AB0EE409A0025D8E010
:1048000000EE105AB8EE400ADFEDDB0A20EE200A77
:10481000DFEDDA0A80EE201AB0EE418AB0EE480AE7
:1048200001F006F8D4ED000A20EE200AF0EE409ADE
:1048300094ED010A30EE290AC0EE090AB0EE60CA12
:10484000B0EE4C0A01F0DAF8D4ED030A20EE200AAB
:10485000B0EE40AA94ED010A39EEC00AC0EE090A92
:10486000B0EE60CAB0EE4C0A01F0C8F8D4ED030A0D
:1048700020EE200AF0EE40AA9FEDC10AB4EEC08AF5
:10488000F1EE10FA1DDB9FEDBF0AB4EEC08AF1EE27
:1048900010FA16D89FEDBA0A38EE400ADFEDBA0AD0
:1048A00080EE201AF0EE41CAB0EE6C0A01F0A2FED2
:1048B000B0EE40CA3AEECA0AF0EE4A8A40EE0C8ADE
:1048C00032E09FEDB20AB4EEC08AF1EE10FA1DDBC1
:1048D0009FEDAF0AB4EEC08AF1EE10FA16D89FED44
:1048E000AB0A38EE400ADFEDA80A80EE201AF0EE9F
:1048F00041CAB0EE6C0A01F07DFEB0EE40CA3AEE5D
:104900006A0AF0EE6A8A40EE0C8A0DE0B0EE480AC0
:1049100000F08AFDB5EEC00AF1EE10FA02DBF0EE0F
:104920004A8A01E0F0EE6A8AB0EE480A00F07CFDA7
:10493000B5EEC00AF1EE10FA0ADB94ED0A0AF7EEC2
:10494000000A30EE200A20EE280AF0EE408A09E044
:1049500094ED0A0AF7EE000A30EEC00A20EE280AAB
:10496000F0EE408A94ED000AC9EE800A94ED070A41
:1049700094ED051A01EE200A864800EB850080EDD3
:10498000000A94ED030AC8EE800A94ED080A94ED3B
:10499000061A01EE200A94ED001AC9EE810A94ED80
:1049A000091A01EE200A7C4800EB850080ED000A20
:1049B0006D1CB5F5007FFFF423AF764890ED000A3B
:1049C00000F5006080ED000A734890ED000A00F5E4
:1049D000006080ED000A9FED710A714880ED000AC9
:1049E000012533E06B4800EB850090ED000A681E5E
:1049F000684901EB8000D0ED000A30EE600AF0EE6D
:104A0000408A654800EB850090ED000A681E624907
:104A100001EB8000D0ED000A30EE600AB0EE408A73
:104A200068EEA80A48EE080AB0EE600A00F0C8FF77
:104A3000681E5B4901EB8000D0ED000A30EE200AD1
:104A4000084600EB850080ED000A6D1CB5F5007F7F
:104A5000C8D9544890ED00BA9FED460AB4EEC0BAEA
:104A6000F1EE10FA00D2A1E60126002579E000EE71
:104A7000105AB8EE400A2BEE000ADFED400A80EE35
:104A8000201AF0EE418A00E0761CB6F5007F09D2CC
:104A9000434800EB860090ED000AB4EEE80AF1EE20
:104AA00010FAF1D33E4800EB860090ED000A701E2C
:104AB0003B4901EB8000D0ED000A30EE608A9FEDAB
:104AC0002D0AB4EEC08AF1EE10FA09DD701E01EB7A
:104AD000800090ED000A78EEC00A80EE880A01E0BE
:104AE0009FED2E0AF0EE409A2A4800EB860090EDEA
:104AF000000A701E274901EB8000D0ED000A70EE1D
:104B0000600A701E01EB800090ED000AB0EE40AA32
:104B100000EEA9AA204800EB860090ED000A701E66
:104B20001D4901EB8000D0ED000A70EE600A701E96
:104B300001EB800090ED000AF0EE40AA40EEA9AA39
:104B4000A08DB0EE4A0A01F0A7FC174921F8150024
:104B5000A08DB0EE6A0A01F09FFC144921F81500FF
:104B60006D1CB5F5007F82D300BF1FE677BE7F3F87
:104B70006F12833ABD378635DB0FC9400000004411
:104B8000F140AE3FC5DEE33F5077D63E2A18904055
:104B90009E7F9D402010002024180020000000006F
:104BA000282000202828002020080020200C002099
:104BB00010B5FFF7DDFD0446FFF7DEFD10BD00BFB9
:104BC000FEE770477047704710B5FEF775FD10BDE2
:104BD0000348006840F47000014908607047000015
:104BE00088ED00E010B50268294B98420ED0B0F174
:104BF000804F0BD0274B984208D0274B984205D0C6
:104C0000264B984202D0264B984203D122F07002E4
:104C10004B681A431E4B984220D0B0F1804F1DD0F4
:104C20001C4B98421AD01C4B984217D01B4B9842F1
:104C300014D01B4B984211D01A4B98420ED01A4BED
:104C400098420BD0194B984208D0194B984205D086
:104C5000184B984202D0184B984203D122F440726C
:104C6000CB681A4322F080034C6943EA04020260D5
:104C70008B68C3620B688362054B984202D0084B75
:104C8000984201D10B6903630123436110BD000009
:104C9000000001400004004000080040000C0040FB
:104CA0000004014000400140004401400048014030
:104CB00000180040001C00400020004070B5054670
:104CC000AC6B0020E085E0842046FFF747FA70BD1A
:104CD00000BF00BF02680C3252E8002F22F490712E
:104CE00002680C3242E80013002BF3D100BF00BF72
:104CF00000BF0268143252E8002F22F0010102685E
:104D0000143242E80013002BF3D100BF016B0129DC
:104D10000ED100BF00BF02680C3252E8002F22F013
:104D2000100102680C3242E80013002BF3D100BFDF
:104D3000202180F83E1000210163704710B5044621
:104D40002068C06820F040002168C860202084F8F6
:104D50003D002046FFF7EDFC002010BDF8B50446ED
:104D600094F83E00222873D1A068B0F5805F0CD182
:104D7000206950B90025A66A20684068C0F3080081
:104D80003080A06A801CA06215E0A56A0026A06899
:104D9000B0F5805F03D0A06828B9206918B92068F1
:104DA0004068287004E02068406800F07F002870A8
:104DB000A06A401CA062E08D401E80B2E085002801
:104DC00044D12068C06820F020002168C8602068B5
:104DD000C06820F480702168C8602068406920F0B5
:104DE000010021684861202084F83E00206B0128E2
:104DF00026D10020206300BF00BF21680C3151E89C
:104E0000001F21F0100021680C3141E80002002A47
:104E1000F3D100BF2068006800F0100010280AD10C
:104E200000BF002000902068006800902068406863
:104E3000009000BF00BFA18D2046FFF78EF902E071
:104E40002046FFF7BFFB0020F8BD01E00020FBE794
:104E50000220F9E72DE9F84F04462068006920F4A4
:104E60004050E1680843216808612169A06808434F
:104E700061690843E169084300902068C06849F20D
:104E80000C618843009908432168C8602068406924
:104E900020F44070A1690843216848617649206880
:104EA000884203D075492068884203D1FEF790FDFF
:104EB000814602E0FEF77CFD8146E069B0F5004FD7
:104EC0006CD102206168A0FB015003461920A9FBA8
:104ED000007001462A463846FBF7DDF96421B0FB35
:104EE000F1F04FEA001A02206168A0FB01510B4665
:104EF0001920A9FB00712A463846FBF7CCF98346F6
:104F000002206168A0FB015003461920A9FB007133
:104F10002A463846FBF7BFF96421B0FBF1F000EBFD
:104F2000C00101EB0010ABEB8000322101EBC000AF
:104F30006421B0FBF1F000F0F8000AEB400A022017
:104F40006168A0FB015003461920A9FB00700146CF
:104F50002A463846FBF79FF9834602206168A0FB8A
:104F6000015003461920A9FB00712A463846FBF779
:104F700092F96421B0FBF1F000EBC00101EB0010ED
:104F8000ABEB8000322101EBC0006421B0FBF1F0FB
:104F900000F007005044216888606AE004206168DE
:104FA000A0FB015003461920A9FB007001462A46C8
:104FB0003846FBF770F9824604206168A0FB015077
:104FC00003461920A9FB007001462A463846FBF724
:104FD00062F96421B0FBF1F000EBC00101EB0010BD
:104FE000AAEB8000322101EB00106421B0FBF1F04C
:104FF00000F0F00A04206168A0FB0170034619204C
:10500000A9FB00513A462846FBF745F96421B0FB5D
:10501000F1F00AEB001A04206168A0FB01510B4675
:105020001920A9FB00712A463846FBF734F983465C
:1050300004206168A0FB015003461920A9FB007001
:1050400001462A463846FBF726F96421B0FBF1F009
:1050500000EBC00101EB0010ABEB8000322101EB53
:1050600000106421B0FBF1F000F00F005044216803
:105070008860BDE8F88F0000001001400014014076
:1050800010B5034699629A85DA85002018642220BB
:1050900083F83E0000BF002083F83C0000BF186981
:1050A00028B11868C06840F480701C68E060186817
:1050B000406940F001001C6860611868C06840F0F9
:1050C00020001C68E060002010BD014691F83D0002
:1050D000212828D18868B0F5805F0BD1086948B9CC
:1050E0000A6A1088C0F308000B685860086A801CC0
:1050F000086205E00B6A581C086218780B68586053
:10510000C88C401E80B2C88458B90868C06820F0B6
:1051100080000B68D8600868C06840F040000B68E9
:10512000D860002070470220FCE72DE9F0410446DA
:105130000D4617469846069E34E0701C88B32EB183
:10514000FEF7B4FAA0EB0800B0422BD900BF00BFB5
:1051500021680C3151E8001F21F4D07021680C3116
:1051600041E80002002AF3D100BF00BF00BF216860
:10517000143151E8001F21F001002168143141E889
:105180000002002AF3D100BF202084F83D0084F8FB
:105190003E0000BF002084F83C0000BF0320BDE8B3
:1051A000F081FFE7206800682840A84201D1012073
:1051B00000E00020B842C0D00020F0E710B502485F
:1051C000FEF7CEFF10BD0000E829002000BFFEE77B
:1051D00003B401984100009850EAC12018BF042090
:1051E0004A0D18BF40F0010040F2FF72B2EB515F70
:1051F00008BF40F00200012808BF052002B0704738
:105200004100080218BF04200A0E18BF40F0010038
:105210004FF07F4232EA010108BF40F0020001284E
:1052200008BF05207047000002480068C0F3022054
:10523000704700000CED00E010B5002804DB0A0701
:10524000130E054A135406E00A07140E034A00F031
:105250000F031B1FD45410BD00E400E018ED00E064
:1052600030B52DED048B81B0B0EE408AF0EE608A4F
:105270006A4651EC180B00F08BFE00989FED329BB4
:105280007E300090002821DC53EC192B51EC180BD8
:1052900001F030FC1AD0002140F608004FF0000069
:1052A000044651EC180B01F0DFFB08EE100A40F643
:1052B000080004EA00014FF00000B5EEC08AF1EEEC
:1052C00010FA04BF0220FBF782FB2DE00098FF28B4
:1052D00030DB002108464FF0000000F4400553EC9D
:1052E000192B51EC180B01F07BFD8CBF002401241D
:1052F0000220FBF76CFB9FED168A4DB1002C0CBF12
:105300004FF400004FF48000A84218BF9FED118AAF
:10531000042108464FF00000002C01BFB1EE480AFE
:1053200001B0BDEC048B30BDB0EE480A01B0BDEC5D
:10533000048B30BD51EC180B01F096FB01B000EE70
:10534000100ABDEC048B30BD00000000000000001E
:105350000000807FFFFF7F7F10B52DED028BB0EE48
:10536000408A18EE104A24F00040B0F17E5F13DD51
:10537000B0F1FF4F07DDB0EE480ABDEC028BBDE88F
:10538000104000F0D7BB0120FBF721FBBDEC028BE6
:10539000BDE8104000F0D2BB0FD10220FBF717FB95
:1053A00000F0BEFB10EE101A18EE100ABDEC028BD6
:1053B00061F31E0000EE100A10BDB0F1625F0CDA5E
:1053C00018EE100AFFF71CFF042808BF00F0C6FB08
:1053D000B0EE480ABDEC028B10BD00EE100AB7EE2D
:1053E000001AB6EE008A70EE000AB0F17C5F0CDAAB
:1053F00060EE801A31EE401A81EE810A30EE200A0A
:1054000000F0B4FB20EE080A07E031EE401A80EE0F
:10541000810A00F0ABFB20EE080A002CB8BFB1EE09
:10542000400ABDEC028B10BD10EE101A08B5444ABC
:105430006846B2EB410F28D94FF0E640B0EB410F80
:1054400094BF00204FF0FF3000900098002861DBEF
:1054500060EE000A10F0010F45D010F0020FDFEDF2
:10546000391A9FED391A00EEE11ADFED381A40EED5
:10547000811A21EEA01AF0EE400A40EE010A08BFA0
:10548000F1EE600AB0EE600A08BD314B21F0004237
:1054900093423CD911F0004FDFED2E0A20EE201A86
:1054A000DFED2D0A19BF31EE601A71EE200A31EEE0
:1054B000201A71EE600ABDEEE01A11EE100A9FED9F
:1054C000271A00F0030000EEC10A9FED251A009094
:1054D00000EEC10A9FED231A00EEC10A9FED221AC9
:1054E00000EEC10AB1E79FED211A9FED210A10F0ED
:1054F000020F00EE810A9FED1F1A00EE801AB7EE30
:10550000000A00EE810A18BFB1EE400A08BD00F0A3
:1055100053FC9AE710EE100A4000B0F17F4F3CBFF9
:10552000B7EE000A08BD07D14FF00100FBF74FFAB4
:10553000BDE8084000F002BBBDE8084000F0FABA40
:10554000B61F927E336D4C39DA82083CA0AA2ABE7F
:10555000490E494683F9223F0000004B0000C93F35
:1055600000A0FD390020A2331A61342CB93AB2BA36
:10557000CA9F2A3DDDFFFFBE10B510EE104A4FF066
:1055800019406849002200EB44002DED028B88424F
:1055900057D8DFED650A14F0004F60EE200A14BF03
:1055A000BEEE001AB6EE001A71EE200AFDEEE00A19
:1055B00010EE900A00EE900AF8EEE00A9FED5B1AFA
:1055C00000EEC10A9FED5A1A00EEC10ADFED590A3A
:1055D0009FED591A00EE201ADFED580A40EE010A3D
:1055E0009FED571A574B00F0030100EE201A21EEF1
:1055F000000A7B4403EB8103D3ED000A524B7B444A
:1056000003EB810393ED001A504B41EE000A7B44FB
:1056100003EB8101801091ED000A70EE800AEABB75
:1056200000EE100AB8EEC01ADFED491A9FED490AE4
:10563000BDEC028B01EE210ABCEEC00A20EE200A6E
:1056400010BD4FF0FF40A0431BD04FF0CE40B0EB59
:10565000440F82BFB7EE000ABDEC028B10BD3E487E
:10566000B0EB440F28BF012293D20220FBF7AFF921
:1056700014F0004F15D0BDEC028BBDE8104000F0D7
:105680006DBA14F5000F02BF9FED340ABDEC028B1A
:1056900010BDBDEC028BBDE8104000E007E000F05B
:1056A00049BABDEC028BBDE8104000F04FBA00EBE8
:1056B000D07359104FF07E5202EBC15100EE101A18
:1056C000A0EB630002EBC05060EE200A00EE100A6F
:1056D00020EE208A18EE100A88B118EE100AB0F1F8
:1056E000FF4F15D018EE100AFFF78AFD042808BFF7
:1056F00000F034FAB0EE480ABDEC028B10BD022077
:10570000FBF765F9BDEC028BBDE8104000F026BA4E
:105710000220FBF75CF9BDEC028BBDE8104000F005
:1057200015BA00000000501E3BAAB8400070313E80
:10573000F4FD053712BB2A3D12BB2A3EFFFFFF3E98
:10574000FFFF7F3FF21A0000F61A0000C61A0000A1
:105750000000004B00007E4E0000A085000000000D
:1057600030B540F2FF742DED048BF0EE608A18EE38
:10577000901A85B0B0EE408A9FED2B9B05468DEDCB
:10578000008B34EA115147D053EC192B51EC180B14
:1057900001F0B0F940D02A4651EC180B01F008FC9A
:1057A00041EC180B18EE900A8DED008B34EA105086
:1057B0001CD053EC192B51EC180B01F09BF92BD199
:1057C0000220FBF704F900F09BF910EE901A18EE96
:1057D000900A8DED020B8DED008B61F31E0003909E
:1057E0009DED020B05B0BDEC048B30BD0220FBF734
:1057F000EEF800F075F910EE901A18EE900A8DEDA3
:10580000020B8DED008B61F31E0003909DED020BEA
:1058100005B0BDEC048B30BD05B0B0EE480AF0EE2B
:10582000680ABDEC048B30BD0000000000000000E1
:1058300000B510EE101A2DED028B81B0524A684669
:10584000B2EB410F2ED94FF0E640B0EB410F94BFC1
:1058500000204FF0FF3000900098B0EE408A002802
:105860006ADB10F0010F4BD068EE080A9FED471A73
:105870009FED470A00EE810A9FED461A10F0020FD5
:1058800000EE801AB7EE000A00EE810A02BF01B0F6
:10589000BDEC028B00BD00BF01B0B1EE400ABDEC13
:1058A000028B00BD3C4B21F00042934241D911F0E4
:1058B000004FDFED3A0A20EE201ADFED390A19BF5A
:1058C00031EE601A71EE200A31EE201A71EE600A94
:1058D000BDEEE01A11EE100A9FED321A00F003003F
:1058E00000EEC10A9FED301A009000EEC10A9FED54
:1058F0002F1A00EEC10A9FED2E1A00EEC10AABE787
:1059000028EE080A9FED2B1ADFED2B0A10F0020F8C
:1059100040EE410A9FED291A00EE201A61EE000ABE
:10592000B0EE480A08EE200AB6D101B0BDEC028BF9
:1059300000BD00F041FA8FE718EE100A4000B0F108
:105940007F4F0DD218EE100AFFF75AFC042808BF4B
:1059500000F004F9B0EE480A01B0BDEC028B00BDC6
:1059600009D10120FBF733F801B0BDEC028B5DF8E3
:1059700004EB00F0E3B801B0B0EE480ABDEC028BD6
:105980005DF804EB00F0D6B8B61F927EB93AB2BA11
:10599000CA9F2A3DDDFFFFBE490E494683F9223FDB
:1059A0000000004B0000C93F00A0FD390020A233D9
:1059B0001A61342C336D4C39DA82083CA0AA2ABE15
:1059C00010B52DED028BB1EEC08A18EE100A20F052
:1059D0000040C0F1FF40C00F0AD010EE100A20F0C6
:1059E0000040C0F1FF40C00F04BF0120FAF7EFFFF5
:1059F000B0EE480ABDEC028B10BD000010B510EEF1
:105A0000104A2DED028B4FF07F40B0EEC08AB0EB14
:105A1000440F55D318EE101A2C4A914220DD18EE8F
:105A2000101AB0EB410F1BD318EE101A284AF7EEEC
:105A3000008A914207DD18EE101AB0EB410F28BF23
:105A4000B0EE680A35D238EE080AFFF795FD70EE21
:105A5000280AB0EE001A81EE200A38EEC00A28E0CB
:105A600018EE101AB1F1665F0FDA18EE101AB0EBEB
:105A7000410F0AD318EE100AFFF7C2FB042808BF33
:105A800000F06CF8B0EE480A13E028EE080ADFEDEB
:105A9000110ADFED111A9FED111A40EE210A60EE96
:105AA000800A30EE010A80EE801AB0EE480A08EE55
:105AB000010A002CB8BFB1EE400ABDEC028B10BD4C
:105AC000BDEC028BBDE8104000F034B8549F0C3F91
:105AD000B32C1041C6E252BFB2117BBB1A2A1E4042
